:1000000045C0000061C000005FC000005DC000008E
:100010005BC0000059C0000057C0000055C0000080
:1000200053C000007BC000004FC000004DC0000066
:100030004BC0000049C0000047C0000045C00000A0
:1000400044C0000041C000003FC000003DC00000AF
:100050003BC0000039C0000037C0000035C00000C0
:1000600033C0000031C000002FC000002DC00000D0
:100070002BC0000029C0000027C0000025C00000E0
:1000800023C0000021C000001FC0000011241FBEBB
:10009000CFEFD0E1DEBFCDBF11E0A0E0B1E0E8E4FA
:1000A000F1E100E00BBF02C007900D92AC33B10745
:1000B000D9F721E0ACE3B1E001C01D92A636B2074A
:1000C000E1F7F3D40C94A2089BCF1F920F920FB6C6
:1000D0000F9211240BB60F922F933F934F935F9380
:1000E0006F937F938F939F93AF93BF93EF93FF9300
:1000F0003BD482E882BFFF91EF91BF91AF919F9176
:100100008F917F916F915F914F913F912F910F90C0
:100110000BBE0F900FBE0F901F9018951F920F925D
:100120000FB60F9211240BB60F922F933F934F935C
:100130005F936F937F938F939F93AF93BF93EF934F
:10014000FF93E4D15CD2FF91EF91BF91AF919F916A
:100150008F917F916F915F914F913F912F910F9070
:100160000BBE0F900FBE0F901F90189511D093D01B
:10017000C2D137D2C1D4C9D4789480E07DD080E098
:1001800087D080E07FC008955BD00CD280C20895F4
:1001900020E049E350E06AE370E086E591E086D232
:1001A00021E049E350E06AE370E080E591E07ED22F
:1001B00022E049E350E06AE370E08CE591E076D21A
:1001C00023E049E350E06AE370E08AE491E06EC224
:1001D00008954FD0813099F018F08230C1F0089521
:1001E00086E591E070D2823019F481E045C008952F
:1001F00080E591E068D2823061F43EC0089586E5E2
:1002000091E061D2823029F480E036C0089580E028
:1002100033C0089534D0882319F0813049F008950F
:100220008AE491E050D2823051F481E02BC00895ED
:100230008AE491E048D2823011F480E023C008952E
:1002400024D0882319F0813051F011C0E3DF8CE510
:1002500091E039D2823059F481E01AD008C0B9DF78
:100260008CE591E030D2823011F480E011D0B1CF32
:1002700008958091620108958093620108958091AC
:100280006301089580936301089580916401089546
:10029000809364010895B3D340C20895BF92CF9272
:1002A000DF92EF92FF920F931F93CF93DF93CDB71F
:1002B000DEB76E970FB6F894DEBF0FBECDBFB82E77
:1002C000062F142F7901809101018417A1F1409329
:1002D00001018AE0EDE0F1E09E012F5F3F4F6901EF
:1002E000D90101900D928A95E1F7A90162E080E0C1
:1002F000D3D39701ADECBCEC27D496958795969512
:100300008795969587959F938F931F921F931F9222
:100310000F931F92BF9287E191E09F938F93DF929B
:10032000CF9235D4A60160E081E0B6D30FB6F89441
:10033000DEBF0FBECDBF8DEC089F812D11248695A9
:1003400086958695880F982F990F990F890F081B0E
:1003500088EE93E0089F9001099F300D1124412FF2
:1003600050E0BA01660F771FCA01880F991F880FE6
:10037000991F880F991FAB01480F591F420F531F38
:1003800097013695279536952795ABE7B4E1DCD3F1
:10039000FC01F695E7959F01ADECBCECD5D39695A5
:1003A000879596958795969587959C01220F331F83
:1003B000880F991F880F991F880F991F820F931F0D
:1003C0009F01281B390BC901840F951FC8D26E9657
:1003D0000FB6F894DEBF0FBECDBFDF91CF911F9156
:1003E0000F91FF90EF90DF90CF90BF900895BF9254
:1003F000CF92DF92EF92FF920F931F93CF93DF93F1
:10040000CDB7DEB76E970FB6F894DEBF0FBECDBF87
:10041000B82E062F142F7901809100018417A1F1C5
:10042000409300018AE0E1E3F1E09E012F5F3F4F3E
:100430006901D90101900D928A95E1F7A90162E065
:1004400080E02AD39701ADECBCEC7ED396958795DE
:1004500096958795969587959F938F931F921F9357
:100460001F920F931F92BF9287E191E09F938F930A
:10047000DF92CF928CD3A60160E081E00DD30FB65E
:10048000F894DEBF0FBECDBFFADE882319F08130AD
:1004900051F019C0802F90E024E6B29E800D911D8E
:1004A00011245DD210C09701ADECBCEC4DD39695F4
:1004B0008795969587959695879534E6139F800D39
:1004C000911D11244CD284EFE81681E0F80610F457
:1004D0002DD101C02FD16E960FB6F894DEBF0FBE9E
:1004E000CDBFDF91CF911F910F91FF90EF90DF90E3
:1004F000CF90BF9008951092400110923F0110924A
:100500003E0110923D0110923C010895B2DE81300F
:1005100009F047C040913F01509140014F5F5F4F4C
:100520009A01369527953695279536952795A5EC0A
:10053000B0E20AD3929582958F7089279F708927A0
:1005400068EE73E0869F9001879F300D969F300D77
:100550001124CA01821B930B9093400180933F01A9
:10056000892BF9F480913E0190E001966CE370E0F4
:10057000D8D280933E01811114C080913D0190E05A
:1005800001966CE370E0CDD280933D01811109C0EA
:1005900080913C0190E0019668E170E0C2D28093C6
:1005A0003C010895CF9365DEC82F6FDE8130B9F42A
:1005B000C23051F41092400110923F0110923E015E
:1005C00010923D0110923C0120913F013091400179
:1005D00040913E0160913D0180913C015FDECF91F1
:1005E000089510924501109244018AE080934301DE
:1005F00087E28093420183E0809341010895409116
:100600004401509145014F5F5F4F9A013695279500
:100610003695279536952795A5ECB0E295D292951B
:1006200082958F7089279F70892768EE73E0869F77
:100630009001879F300D969F300D1124CA01821BB7
:10064000930B9093450180934401892BF9F4809199
:10065000430190E001966CE370E063D28093430124
:10066000811114C08091420190E001966CE370E02A
:1006700058D280934201811109C08091410190E0DC
:10068000019668E170E04DD2809341010895FDDD4F
:1006900081110BC0209144013091450140914301EB
:1006A0006091420180914101A2CE0895FC01CB01ED
:1006B0007183608353834283248331E0358340E038
:1006C000622FF6C10895CF93DF93EC016C818A818C
:1006D0009B8108D2982F81110BC08D81813041F40C
:1006E000EFE3FCE93197F1F700C000001D8212C072
:1006F000992369F08D8181110CC08FE39CE90197EA
:10070000F1F700C0000081E08D8382E003C080E04B
:1007100001C080E0DF91CF910895E4E6F0E08081B0
:100720008F6080838FEF80936100089581E08093D4
:10073000470108951092470108950F931F93CF9397
:10074000DF93CDB7DEB72B970FB6F894DEBF0FBEA1
:10075000CDBF8C018BE0E2E0F1E0DE01119601906B
:100760000D928A95E1F78091460190E0019665E04F
:1007700070E0D7D180934601E5E6F0E080818F609C
:10078000808380914601823009F478C030F4882358
:1007900059F0813009F440C0D7C0833009F49EC0BD
:1007A000843009F4C2C0D0C098013695279536959B
:1007B000279536952795A5ECB0E2C6D1AC015295A8
:1007C00042954F7045275F7045279A01ADECBCEC10
:1007D000BBD19695879596958795969587959C011B
:1007E000220F331F880F991F880F991F880F991F99
:1007F000820F931F9A01281B390BE1E0F0E0EC0F08
:10080000FD1FE20FF31F808180936200E5E6F0E0B8
:1008100080818E7F808398C0980136952795369584
:100820002795ABE7B4E190D1AC01569547959A0175
:10083000ADECBCEC89D19695879596958795969564
:1008400087959C01220F331F880F991F880F991FCE
:10085000880F991F820F931F9A01281B390BE1E023
:10086000F0E0EC0FFD1FE20FF31F80818093620028
:10087000E5E6F0E080818D7F808366C09801ADEC75
:10088000BCEC62D1AC015695479556954795569567
:1008900047959A0159D196958795969587959695FE
:1008A00087959C01220F331F880F991F880F991F6E
:1008B000880F991F820F931F9A01281B390BE1E0C3
:1008C000F0E0EC0FFD1FE20FF31F808180936200C8
:1008D000E5E6F0E080818B7F808336C09801ADEC47
:1008E000BCEC32D196958795969587959695879588
:1008F0009C01220F331F880F991F880F991F880FA3
:10090000991F820F931F9801281B390BE1E0F0E03B
:10091000EC0FFD1FE20FF31F808180936200E5E67C
:10092000F0E08081877F80830FC08091470188231A
:1009300021F08B858093620002C010926200E5E690
:10094000F0E080818D7F80832B960FB6F894DEBF18
:100950000FBECDBFDF91CF911F910F91089590935E
:10096000490180934801089580914801909149017F
:10097000E4CE089587B3806E87BB8FEF84BB089564
:1009800088BB0895809165018F7D80936501F8CFC4
:10099000089580916501806280936501F1CF08958B
:1009A000809165018F7B80936501EACF08958091E6
:1009B0006501806880936501E3DF8FE99FE001971F
:1009C000F1F700C000000895809165018F77809352
:1009D0006501D6DF8FE99FE00197F1F700C00000C5
:1009E000089585BB0895FDCF0895CF93C82FCADF22
:1009F000D7DFDDDF8C2FF7DFE7DFCF910895BADF98
:100A00008FE59AEE0197F1F700C0000088E3EDDF73
:100A10008FE19EE40197F1F700C0000088E3E5DF75
:100A20008FE99FE00197F1F700C0000088E3DDDF68
:100A300088E3DBDF88E0D9DF81E0D7DF86E0D5DF40
:100A40008CE0D3CF0895CF93C82FA3DFA9DFAFDF0A
:100A50008C2FC9DFB9DFCF9108950F931F93CF93E8
:100A6000DF938C01C0E0D0E002C0EDDF2196F801F9
:100A7000EC0FFD1F80818111F8CFDF91CF911F9185
:100A80000F9108956F70817090E4899F600D11241B
:100A9000862F8058AACF0895CF93DF93EA01F2DF23
:100AA000CE01DBDFDF91CF91089560DB6DDBFECF00
:100AB000FC01413059F4208181E090E002C0880FB0
:100AC000991F6A95E2F7822B80830895908121E037
:100AD00030E002C0220F331F6A95E2F720952923E8
:100AE00020830895FC01808190E002C09595879550
:100AF0006A95E2F78170089583B7856083BF87B7F1
:100B0000816087BF82E882BF089585B5836085BD17
:100B100085B5886085BD87B7806887BF89EF83BD4D
:100B2000089597FB072E16F4009406D077FD08D0A1
:100B30001AD007FC05D03EF4909581959F4F0895FB
:100B4000709561957F4F0895A29FB001B39FC0013A
:100B5000A39F700D811D1124911DB29F700D811DE9
:100B60001124911D0895AA1BBB1B51E107C0AA1FA8
:100B7000BB1FA617B70710F0A61BB70B881F991F3E
:100B80005A95A9F780959095BC01CD0108950F93D2
:100B90001F93CF93DF93CDB7DEB72E970FB6F894A0
:100BA000DEBF0FBECDBF0D891E8986E08C831A8300
:100BB00009838FEF9FE79E838D83AE01475E5F4F72
:100BC0006F89788DCE01019610D0EF81F885E00F06
:100BD000F11F10822E960FB6F894DEBF0FBECDBF68
:100BE000DF91CF911F910F9108952F923F924F92D5
:100BF0005F926F927F928F929F92AF92BF92CF92AD
:100C0000DF92EF92FF920F931F93CF93DF93CDB7B5
:100C1000DEB72B970FB6F894DEBF0FBECDBF6C01C9
:100C20007B018A01FC0117821682838181FFBFC18B
:100C3000CE0101963C01F6019381F70193FD859168
:100C400093FF81917F01882309F4ADC1853239F486
:100C500093FD859193FF81917F01853221F4B60147
:100C600090E0D6D1E8CF912C212C312CFFE1F31567
:100C7000D8F08B3279F038F4803279F08332A1F4F5
:100C8000232D20611DC08D3261F0803369F4232D46
:100C9000216016C0832D8260382EE32DE4603E2E45
:100CA0002AC0F32DF8601DC037FC2DC020ED280FA1
:100CB0002A3040F08E32B9F436FC75C1232D206401
:100CC000322E19C036FE06C08AE0989E200D1124EF
:100CD000922E11C0EAE02E9E200D1124222EF32D1B
:100CE000F0623F2E08C08C3621F4832D8068382EA8
:100CF00002C0883641F4F70193FD859193FF8191FD
:100D00007F018111B3CF982F9F7D9554933028F4A4
:100D10000C5F1F4F9FE399830DC0833631F08337FB
:100D200071F0833509F055C020C0F80180818983B6
:100D30000E5F1F4F88248394912C530112C0280109
:100D4000F2E04F0E511CF801A080B18036FE03C0C6
:100D5000692D70E002C06FEF7FEFC5014ED14C01ED
:100D60008201F32DFF773F2E15C0280122E0420EAD
:100D7000511CF801A080B18036FE03C0692D70E0DF
:100D800002C06FEF7FEFC5012DD14C01F32DF0684C
:100D90003F2E820133FC19C0822D90E088169906FF
:100DA000A0F4B60180E290E033D12A94F5CFF501AA
:100DB00037FC859137FE81915F01B60190E028D123
:100DC00021102A9421E0821A91088114910479F764
:100DD000E1C0843611F0893639F5F80137FE07C0D5
:100DE00060817181828193810C5F1F4F08C0608197
:100DF0007181072E000C880B990B0E5F1F4FF32D8E
:100E0000FF763F2E97FF09C090958095709561956C
:100E10007F4F8F4F9F4FF0683F2E2AE030E0A301B5
:100E200033D1882E861844C0853731F4232D2F7E88
:100E3000B22E2AE030E025C0932D997FB92E8F364F
:100E4000C1F018F4883579F0AEC0803719F08837D2
:100E500021F0A9C0E92FE061BE2EB4FE0DC0FB2D2C
:100E6000F460BF2E09C034FE0AC0292F2660B22EBE
:100E700006C028E030E005C020E130E002C020E1FB
:100E800032E0F801B7FE07C06081718182819381F1
:100E90000C5F1F4F06C06081718180E090E00E5FA3
:100EA0001F4FA301F1D0882E8618FB2DFF773F2E10
:100EB00036FE0DC0232D2E7FA22E891458F434FE49
:100EC0000BC032FC09C0832D8E7EA82E05C0B82C25
:100ED000A32C03C0B82C01C0B92CA4FE0FC0FE0186
:100EE000E80DF11D8081803321F49A2D997EA92E81
:100EF00009C0A2FE06C0B394B39404C08A2D8678BC
:100F000009F0B394A3FC10C0A0FE06C0B21480F494
:100F1000280C922C9B180DC0B21458F4B60180E234
:100F200090E076D0B394F8CFB21418F42B1802C026
:100F3000982C212CA4FE0FC0B60180E390E068D06D
:100F4000A2FE16C0A1FC03C088E790E002C088E5BD
:100F500090E0B6010CC08A2D867851F0A1FE02C047
:100F60008BE201C080E2A7FC8DE2B60190E050D098
:100F7000891430F4B60180E390E04AD09A94F8CF17
:100F80008A94F301E80DF11D8081B60190E040D014
:100F90008110F6CF222009F44ECEB60180E290E017
:100FA00037D02A94F7CFF6018681978102C08FEF60
:100FB0009FEF2B960FB6F894DEBF0FBECDBFDF912B
:100FC000CF911F910F91FF90EF90DF90CF90BF9046
:100FD000AF909F908F907F906F905F904F903F90D9
:100FE0002F900895FC010590615070400110D8F7D2
:100FF000809590958E0F9F1F0895FC016150704061
:1010000001900110D8F7809590958E0F9F1F08953D
:101010000F931F93CF93DF93FB01238121FD03C027
:101020008FEF9FEF2CC022FF16C04681578124818D
:1010300035814217530744F4A081B1819D012F5F90
:101040003F4F318320838C93268137812F5F3F4F21
:101050003783268314C08B01EC01FB010084F185EA
:10106000E02D0995892BE1F6D80116968D919C917A
:101070001797019617969C938E931697CE01DF9142
:10108000CF911F910F910895FA01AA27283051F1AD
:10109000203181F1E8946F936E7F6E5F7F4F8F4FA9
:1010A0009F4FAF4FB1E03ED0B4E03CD0670F781F08
:1010B000891F9A1FA11D680F791F8A1F911DA11DED
:1010C0006A0F711D811D911DA11D20D009F4689426
:1010D0003F912AE0269F11243019305D3193DEF6CE
:1010E000CF010895462F4770405D4193B3E00FD084
:1010F000C9F7F6CF462F4F70405D4A3318F0495D6F
:1011000031FD4052419302D0A9F7EACFB4E0A69551
:101110009795879577956795BA95C9F70097610573
:10112000710508959B01AC010A2E069457954795C9
:1011300037952795BA95C9F7620F731F841F951FBE
:08114000A01D0895F894FFCFF3
:10114800FFFF3F065B4F666D7D077F678053746FB7
:101158007057617463680025303264203A20253066
:101168003264203A2025303264203A202530326417
:0C1178000054696D65436C6F636B0000F0
:00000001FF
